{
  "contractName": "Crowdfunding",
  "abi": [
    {
      "inputs": [
        {
          "internalType": "string",
          "name": "campaignName",
          "type": "string"
        },
        {
          "internalType": "uint256",
          "name": "targetAmountEth",
          "type": "uint256"
        },
        {
          "internalType": "uint256",
          "name": "durationInMin",
          "type": "uint256"
        },
        {
          "internalType": "address payable",
          "name": "beneficiaryAddress",
          "type": "address"
        }
      ],
      "stateMutability": "nonpayable",
      "type": "constructor"
    },
    {
      "inputs": [],
      "name": "beneficiary",
      "outputs": [
        {
          "internalType": "address payable",
          "name": "",
          "type": "address"
        }
      ],
      "stateMutability": "view",
      "type": "function",
      "constant": true
    },
    {
      "inputs": [],
      "name": "fundingDeadline",
      "outputs": [
        {
          "internalType": "uint256",
          "name": "",
          "type": "uint256"
        }
      ],
      "stateMutability": "view",
      "type": "function",
      "constant": true
    },
    {
      "inputs": [],
      "name": "name",
      "outputs": [
        {
          "internalType": "string",
          "name": "",
          "type": "string"
        }
      ],
      "stateMutability": "view",
      "type": "function",
      "constant": true
    },
    {
      "inputs": [],
      "name": "state",
      "outputs": [
        {
          "internalType": "enum Crowdfunding.State",
          "name": "",
          "type": "uint8"
        }
      ],
      "stateMutability": "view",
      "type": "function",
      "constant": true
    },
    {
      "inputs": [],
      "name": "targetAmount",
      "outputs": [
        {
          "internalType": "uint256",
          "name": "",
          "type": "uint256"
        }
      ],
      "stateMutability": "view",
      "type": "function",
      "constant": true
    }
  ],
  "bytecode": "0x60806040523480156200001157600080fd5b50604051620009f0380380620009f0833981810160405281019062000037919062000292565b83600090805190602001906200004f92919062000142565b50670de0b6b3a764000083620000669190620003db565b600181905550603c826200007b9190620003db565b6200008b6200013a60201b60201c565b6200009791906200037e565b60028190555080600360006101000a81548173ffffffffffffffffffffffffffffffffffffffff021916908373ffffffffffffffffffffffffffffffffffffffff1602179055506000600360146101000a81548160ff021916908360038111156200012b577f4e487b7100000000000000000000000000000000000000000000000000000000600052602160045260246000fd5b021790555050505050620005a7565b600042905090565b8280546200015090620004b0565b90600052602060002090601f016020900481019282620001745760008555620001c0565b82601f106200018f57805160ff1916838001178555620001c0565b82800160010185558215620001c0579182015b82811115620001bf578251825591602001919060010190620001a2565b5b509050620001cf9190620001d3565b5090565b5b80821115620001ee576000816000905550600101620001d4565b5090565b60006200020962000203846200034b565b62000317565b9050828152602081018484840111156200022257600080fd5b6200022f8482856200047a565b509392505050565b600081519050620002488162000573565b92915050565b600082601f8301126200026057600080fd5b815162000272848260208601620001f2565b91505092915050565b6000815190506200028c816200058d565b92915050565b60008060008060808587031215620002a957600080fd5b600085015167ffffffffffffffff811115620002c457600080fd5b620002d2878288016200024e565b9450506020620002e5878288016200027b565b9350506040620002f8878288016200027b565b92505060606200030b8782880162000237565b91505092959194509250565b6000604051905081810181811067ffffffffffffffff8211171562000341576200034062000544565b5b8060405250919050565b600067ffffffffffffffff82111562000369576200036862000544565b5b601f19601f8301169050602081019050919050565b60006200038b8262000470565b9150620003988362000470565b9250827fffffffffffffffffffffffffffffffffffffffffffffffffffffffffffffffff03821115620003d057620003cf620004e6565b5b828201905092915050565b6000620003e88262000470565b9150620003f58362000470565b9250817fffffffffffffffffffffffffffffffffffffffffffffffffffffffffffffffff0483118215151615620004315762000430620004e6565b5b828202905092915050565b6000620004498262000450565b9050919050565b600073ffffffffffffffffffffffffffffffffffffffff82169050919050565b6000819050919050565b60005b838110156200049a5780820151818401526020810190506200047d565b83811115620004aa576000848401525b50505050565b60006002820490506001821680620004c957607f821691505b60208210811415620004e057620004df62000515565b5b50919050565b7f4e487b7100000000000000000000000000000000000000000000000000000000600052601160045260246000fd5b7f4e487b7100000000000000000000000000000000000000000000000000000000600052602260045260246000fd5b7f4e487b7100000000000000000000000000000000000000000000000000000000600052604160045260246000fd5b6200057e816200043c565b81146200058a57600080fd5b50565b620005988162000470565b8114620005a457600080fd5b50565b61043980620005b76000396000f3fe608060405234801561001057600080fd5b50600436106100575760003560e01c806306fdde031461005c57806338af3eed1461007a578063796b23bb14610098578063953b8fb8146100b6578063c19d93fb146100d4575b600080fd5b6100646100f2565b6040516100719190610261565b60405180910390f35b610082610180565b60405161008f919061022b565b60405180910390f35b6100a06101a6565b6040516100ad9190610283565b60405180910390f35b6100be6101ac565b6040516100cb9190610283565b60405180910390f35b6100dc6101b2565b6040516100e99190610246565b60405180910390f35b600080546100ff9061034e565b80601f016020809104026020016040519081016040528092919081815260200182805461012b9061034e565b80156101785780601f1061014d57610100808354040283529160200191610178565b820191906000526020600020905b81548152906001019060200180831161015b57829003601f168201915b505050505081565b600360009054906101000a900473ffffffffffffffffffffffffffffffffffffffff1681565b60025481565b60015481565b600360149054906101000a900460ff1681565b6101ce816102ba565b82525050565b6101dd81610309565b82525050565b60006101ee8261029e565b6101f881856102a9565b935061020881856020860161031b565b610211816103de565b840191505092915050565b610225816102ff565b82525050565b600060208201905061024060008301846101c5565b92915050565b600060208201905061025b60008301846101d4565b92915050565b6000602082019050818103600083015261027b81846101e3565b905092915050565b6000602082019050610298600083018461021c565b92915050565b600081519050919050565b600082825260208201905092915050565b60006102c5826102df565b9050919050565b60008190506102da826103ef565b919050565b600073ffffffffffffffffffffffffffffffffffffffff82169050919050565b6000819050919050565b6000610314826102cc565b9050919050565b60005b8381101561033957808201518184015260208101905061031e565b83811115610348576000848401525b50505050565b6000600282049050600182168061036657607f821691505b6020821081141561037a576103796103af565b5b50919050565b7f4e487b7100000000000000000000000000000000000000000000000000000000600052602160045260246000fd5b7f4e487b7100000000000000000000000000000000000000000000000000000000600052602260045260246000fd5b6000601f19601f8301169050919050565b60048110610400576103ff610380565b5b5056fea2646970667358221220d5987abac3da5c24ea443993f52d5f988f80d2c7ae4b51951238130f98068dd464736f6c63430008000033",
  "immutableReferences": {},
  "source": "// SPDX-License-Identifier: MIT\npragma solidity ^0.8.0;\n\ncontract Crowdfunding {\n  enum State { Ongoing, Failed, Succeded, PaidOut }\n\n  string public name;\n  uint public targetAmount;\n  uint public fundingDeadline;\n  address payable public beneficiary;\n  State public state;\n\n  constructor(\n    string memory campaignName,\n    uint targetAmountEth,\n    uint durationInMin,\n    address payable beneficiaryAddress\n  )\n  {\n    name = campaignName;\n    targetAmount = targetAmountEth * 1 ether;\n    fundingDeadline = currentTime() + durationInMin * 1 minutes;\n    beneficiary = beneficiaryAddress;\n    state = State.Ongoing;\n  }\n\n  function currentTime() private view returns(uint) {\n    return block.timestamp;\n  }\n}\n",
  "sourcePath": "C:\\workspace\\solidity\\crowdfunding\\contracts\\Crowdfunding.sol",
  "compiler": {
    "name": "solc",
    "version": "0.8.0+commit.c7dfd78e.Emscripten.clang"
  },
  "schemaVersion": "3.4.14",
  "updatedAt": "2023-06-08T22:14:17.193Z",
  "networkType": "ethereum",
  "devdoc": {
    "kind": "dev",
    "methods": {},
    "version": 1
  },
  "userdoc": {
    "kind": "user",
    "methods": {},
    "version": 1
  }
}